{"abi":[{"type":"constructor","inputs":[],"stateMutability":"nonpayable"},{"type":"fallback","stateMutability":"payable"},{"type":"receive","stateMutability":"payable"},{"type":"function","name":"balances","inputs":[{"name":"","type":"address","internalType":"address"}],"outputs":[{"name":"","type":"uint256","internalType":"uint256"}],"stateMutability":"view"},{"type":"function","name":"deposit","inputs":[],"outputs":[],"stateMutability":"payable"},{"type":"function","name":"ethUnits","inputs":[],"outputs":[{"name":"oneWei","type":"uint256","internalType":"uint256"},{"name":"oneGwei","type":"uint256","internalType":"uint256"},{"name":"oneEther","type":"uint256","internalType":"uint256"}],"stateMutability":"pure"},{"type":"function","name":"getBalance","inputs":[{"name":"user","type":"address","internalType":"address"}],"outputs":[{"name":"","type":"uint256","internalType":"uint256"}],"stateMutability":"view"},{"type":"function","name":"getContractBalance","inputs":[],"outputs":[{"name":"","type":"uint256","internalType":"uint256"}],"stateMutability":"view"},{"type":"function","name":"isVIP","inputs":[{"name":"user","type":"address","internalType":"address"}],"outputs":[{"name":"","type":"bool","internalType":"bool"}],"stateMutability":"view"},{"type":"function","name":"owner","inputs":[],"outputs":[{"name":"","type":"address","internalType":"address"}],"stateMutability":"view"},{"type":"function","name":"sendViaCall","inputs":[{"name":"to","type":"address","internalType":"address payable"},{"name":"amount","type":"uint256","internalType":"uint256"}],"outputs":[],"stateMutability":"nonpayable"},{"type":"function","name":"sendViaSend","inputs":[{"name":"to","type":"address","internalType":"address payable"},{"name":"amount","type":"uint256","internalType":"uint256"}],"outputs":[],"stateMutability":"nonpayable"},{"type":"function","name":"sendViaTransfer","inputs":[{"name":"to","type":"address","internalType":"address payable"},{"name":"amount","type":"uint256","internalType":"uint256"}],"outputs":[],"stateMutability":"nonpayable"},{"type":"function","name":"totalDeposits","inputs":[],"outputs":[{"name":"","type":"uint256","internalType":"uint256"}],"stateMutability":"view"},{"type":"function","name":"withdraw","inputs":[{"name":"amount","type":"uint256","internalType":"uint256"}],"outputs":[],"stateMutability":"nonpayable"},{"type":"function","name":"withdrawAll","inputs":[],"outputs":[],"stateMutability":"nonpayable"},{"type":"event","name":"Deposited","inputs":[{"name":"depositor","type":"address","indexed":true,"internalType":"address"},{"name":"amount","type":"uint256","indexed":false,"internalType":"uint256"},{"name":"timestamp","type":"uint256","indexed":false,"internalType":"uint256"}],"anonymous":false},{"type":"event","name":"FallbackCalled","inputs":[{"name":"sender","type":"address","indexed":true,"internalType":"address"},{"name":"amount","type":"uint256","indexed":false,"internalType":"uint256"},{"name":"data","type":"bytes","indexed":false,"internalType":"bytes"}],"anonymous":false},{"type":"event","name":"Received","inputs":[{"name":"sender","type":"address","indexed":true,"internalType":"address"},{"name":"amount","type":"uint256","indexed":false,"internalType":"uint256"}],"anonymous":false},{"type":"event","name":"TransferFailed","inputs":[{"name":"recipient","type":"address","indexed":true,"internalType":"address"},{"name":"amount","type":"uint256","indexed":false,"internalType":"uint256"}],"anonymous":false},{"type":"event","name":"Withdrawn","inputs":[{"name":"recipient","type":"address","indexed":true,"internalType":"address"},{"name":"amount","type":"uint256","indexed":false,"internalType":"uint256"}],"anonymous":false},{"type":"error","name":"DepositTooSmall","inputs":[{"name":"sent","type":"uint256","internalType":"uint256"},{"name":"minimum","type":"uint256","internalType":"uint256"}]},{"type":"error","name":"InsufficientBalance","inputs":[{"name":"requested","type":"uint256","internalType":"uint256"},{"name":"available","type":"uint256","internalType":"uint256"}]},{"type":"error","name":"NotOwner","inputs":[{"name":"caller","type":"address","internalType":"address"}]},{"type":"error","name":"WithdrawFailed","inputs":[{"name":"recipient","type":"address","internalType":"address"},{"name":"amount","type":"uint256","internalType":"uint256"}]},{"type":"error","name":"ZeroAddress","inputs":[]}],"bytecode":{"object":"0x6080604052348015600e575f5ffd5b50335f5f6101000a81548173ffffffffffffffffffffffffffffffffffffffff021916908373ffffffffffffffffffffffffffffffffffffffff1602179055506115788061005b5f395ff3fe6080604052600436106100c5575f3560e01c80638c7736f41161007e578063d27f8e6611610058578063d27f8e661461039a578063e4dc4f55146103c2578063f4201c3c146103ea578063f8b2cb4f1461042657610185565b80638c7736f41461033e5780638da5cb5b14610366578063d0e30db01461039057610185565b806327e235e3146102445780632e1a7d4d146102805780636f9fb98a146102a85780637d882097146102d25780638353471d146102fc578063853828b61461032857610185565b36610185573460025f3373ffffffffffffffffffffffffffffffffffffffff1673ffffffffffffffffffffffffffffffffffffffff1681526020019081526020015f205f8282546101169190611039565b925050819055503460015f82825461012e9190611039565b925050819055503373ffffffffffffffffffffffffffffffffffffffff167f88a5966d370b9919b20f3e2c13ff65706f196a4e32cc2c12bf57088f885258743460405161017b919061107b565b60405180910390a2005b3460025f3373ffffffffffffffffffffffffffffffffffffffff1673ffffffffffffffffffffffffffffffffffffffff1681526020019081526020015f205f8282546101d19190611039565b925050819055503460015f8282546101e99190611039565b925050819055503373ffffffffffffffffffffffffffffffffffffffff167faca09dd456ca888dccf8cc966e382e6e3042bb7e4d2d7815015f844edeafce42345f3660405161023a939291906110ee565b60405180910390a2005b34801561024f575f5ffd5b5061026a6004803603810190610265919061117c565b610462565b604051610277919061107b565b60405180910390f35b34801561028b575f5ffd5b506102a660048036038101906102a191906111d1565b610477565b005b3480156102b3575f5ffd5b506102bc61070c565b6040516102c9919061107b565b60405180910390f35b3480156102dd575f5ffd5b506102e6610713565b6040516102f3919061107b565b60405180910390f35b348015610307575f5ffd5b50610310610719565b60405161031f939291906111fc565b60405180910390f35b348015610333575f5ffd5b5061033c610737565b005b348015610349575f5ffd5b50610364600480360381019061035f919061126c565b610970565b005b348015610371575f5ffd5b5061037a610b1c565b60405161038791906112b9565b60405180910390f35b610398610b40565b005b3480156103a5575f5ffd5b506103c060048036038101906103bb919061126c565b610c52565b005b3480156103cd575f5ffd5b506103e860048036038101906103e3919061126c565b610d78565b005b3480156103f5575f5ffd5b50610410600480360381019061040b919061117c565b610f07565b60405161041d91906112ec565b60405180910390f35b348015610431575f5ffd5b5061044c6004803603810190610447919061117c565b610f58565b604051610459919061107b565b60405180910390f35b6002602052805f5260405f205f915090505481565b60025f3373ffffffffffffffffffffffffffffffffffffffff1673ffffffffffffffffffffffffffffffffffffffff1681526020019081526020015f2054811115610538578060025f3373ffffffffffffffffffffffffffffffffffffffff1673ffffffffffffffffffffffffffffffffffffffff1681526020019081526020015f20546040517fcf47918100000000000000000000000000000000000000000000000000000000815260040161052f929190611305565b60405180910390fd5b8060025f3373ffffffffffffffffffffffffffffffffffffffff1673ffffffffffffffffffffffffffffffffffffffff1681526020019081526020015f205f828254610584919061132c565b925050819055508060015f82825461059c919061132c565b925050819055505f3373ffffffffffffffffffffffffffffffffffffffff16826040516105c89061138c565b5f6040518083038185875af1925050503d805f8114610602576040519150601f19603f3d011682016040523d82523d5f602084013e610607565b606091505b50509050806106ba578160025f3373ffffffffffffffffffffffffffffffffffffffff1673ffffffffffffffffffffffffffffffffffffffff1681526020019081526020015f205f82825461065c9190611039565b925050819055508160015f8282546106749190611039565b9250508190555033826040517fa22699120000000000000000000000000000000000000000000000000000000081526004016106b19291906113a0565b60405180910390fd5b3373ffffffffffffffffffffffffffffffffffffffff167f7084f5476618d8e60b11ef0d7d3f06914655adb8793e28ff7f018d4c76d505d583604051610700919061107b565b60405180910390a25050565b5f47905090565b60015481565b5f5f5f60019250633b9aca009150670de0b6b3a76400009050909192565b5f5f9054906101000a900473ffffffffffffffffffffffffffffffffffffffff1673ffffffffffffffffffffffffffffffffffffffff163373ffffffffffffffffffffffffffffffffffffffff16146107c757336040517f245aecd30000000000000000000000000000000000000000000000000000000081526004016107be91906112b9565b60405180910390fd5b5f4790505f81036108125760015f6040517fcf479181000000000000000000000000000000000000000000000000000000008152600401610809929190611442565b60405180910390fd5b5f5f5f9054906101000a900473ffffffffffffffffffffffffffffffffffffffff1673ffffffffffffffffffffffffffffffffffffffff16826040516108579061138c565b5f6040518083038185875af1925050503d805f8114610891576040519150601f19603f3d011682016040523d82523d5f602084013e610896565b606091505b50509050806108fe575f5f9054906101000a900473ffffffffffffffffffffffffffffffffffffffff16826040517fa22699120000000000000000000000000000000000000000000000000000000081526004016108f59291906113a0565b60405180910390fd5b5f5f9054906101000a900473ffffffffffffffffffffffffffffffffffffffff1673ffffffffffffffffffffffffffffffffffffffff167f7084f5476618d8e60b11ef0d7d3f06914655adb8793e28ff7f018d4c76d505d583604051610964919061107b565b60405180910390a25050565b5f5f9054906101000a900473ffffffffffffffffffffffffffffffffffffffff1673ffffffffffffffffffffffffffffffffffffffff163373ffffffffffffffffffffffffffffffffffffffff1614610a0057336040517f245aecd30000000000000000000000000000000000000000000000000000000081526004016109f791906112b9565b60405180910390fd5b5f8273ffffffffffffffffffffffffffffffffffffffff166108fc8390811502906040515f60405180830381858888f19350505050905080610ac9578273ffffffffffffffffffffffffffffffffffffffff167f1c43b9761b3fba5321ca8212bfc231945f668ccc0c446f333999eea9ce8fda8183604051610a82919061107b565b60405180910390a282826040517fa2269912000000000000000000000000000000000000000000000000000000008152600401610ac09291906114bb565b60405180910390fd5b8273ffffffffffffffffffffffffffffffffffffffff167f7084f5476618d8e60b11ef0d7d3f06914655adb8793e28ff7f018d4c76d505d583604051610b0f919061107b565b60405180910390a2505050565b5f5f9054906101000a900473ffffffffffffffffffffffffffffffffffffffff1681565b66038d7ea4c68000341015610b95573466038d7ea4c680006040517f4a77f2fa000000000000000000000000000000000000000000000000000000008152600401610b8c92919061151b565b60405180910390fd5b3460025f3373ffffffffffffffffffffffffffffffffffffffff1673ffffffffffffffffffffffffffffffffffffffff1681526020019081526020015f205f828254610be19190611039565b925050819055503460015f828254610bf99190611039565b925050819055503373ffffffffffffffffffffffffffffffffffffffff167f73a19dd210f1a7f902193214c0ee91dd35ee5b4d920cba8d519eca65a7b488ca3442604051610c48929190611305565b60405180910390a2565b5f5f9054906101000a900473ffffffffffffffffffffffffffffffffffffffff1673ffffffffffffffffffffffffffffffffffffffff163373ffffffffffffffffffffffffffffffffffffffff1614610ce257336040517f245aecd3000000000000000000000000000000000000000000000000000000008152600401610cd991906112b9565b60405180910390fd5b8173ffffffffffffffffffffffffffffffffffffffff166108fc8290811502906040515f60405180830381858888f19350505050158015610d25573d5f5f3e3d5ffd5b508173ffffffffffffffffffffffffffffffffffffffff167f7084f5476618d8e60b11ef0d7d3f06914655adb8793e28ff7f018d4c76d505d582604051610d6c919061107b565b60405180910390a25050565b5f5f9054906101000a900473ffffffffffffffffffffffffffffffffffffffff1673ffffffffffffffffffffffffffffffffffffffff163373ffffffffffffffffffffffffffffffffffffffff1614610e0857336040517f245aecd3000000000000000000000000000000000000000000000000000000008152600401610dff91906112b9565b60405180910390fd5b5f8273ffffffffffffffffffffffffffffffffffffffff1682604051610e2d9061138c565b5f6040518083038185875af1925050503d805f8114610e67576040519150601f19603f3d011682016040523d82523d5f602084013e610e6c565b606091505b5050905080610eb45782826040517fa2269912000000000000000000000000000000000000000000000000000000008152600401610eab9291906114bb565b60405180910390fd5b8273ffffffffffffffffffffffffffffffffffffffff167f7084f5476618d8e60b11ef0d7d3f06914655adb8793e28ff7f018d4c76d505d583604051610efa919061107b565b60405180910390a2505050565b5f67016345785d8a000060025f8473ffffffffffffffffffffffffffffffffffffffff1673ffffffffffffffffffffffffffffffffffffffff1681526020019081526020015f205410159050919050565b5f5f73ffffffffffffffffffffffffffffffffffffffff168273ffffffffffffffffffffffffffffffffffffffff1603610fbe576040517fd92e233d00000000000000000000000000000000000000000000000000000000815260040160405180910390fd5b60025f8373ffffffffffffffffffffffffffffffffffffffff1673ffffffffffffffffffffffffffffffffffffffff1681526020019081526020015f20549050919050565b5f819050919050565b7f4e487b71000000000000000000000000000000000000000000000000000000005f52601160045260245ffd5b5f61104382611003565b915061104e83611003565b92508282019050808211156110665761106561100c565b5b92915050565b61107581611003565b82525050565b5f60208201905061108e5f83018461106c565b92915050565b5f82825260208201905092915050565b828183375f83830152505050565b5f601f19601f8301169050919050565b5f6110cd8385611094565b93506110da8385846110a4565b6110e3836110b2565b840190509392505050565b5f6040820190506111015f83018661106c565b81810360208301526111148184866110c2565b9050949350505050565b5f5ffd5b5f73ffffffffffffffffffffffffffffffffffffffff82169050919050565b5f61114b82611122565b9050919050565b61115b81611141565b8114611165575f5ffd5b50565b5f8135905061117681611152565b92915050565b5f602082840312156111915761119061111e565b5b5f61119e84828501611168565b91505092915050565b6111b081611003565b81146111ba575f5ffd5b50565b5f813590506111cb816111a7565b92915050565b5f602082840312156111e6576111e561111e565b5b5f6111f3848285016111bd565b91505092915050565b5f60608201905061120f5f83018661106c565b61121c602083018561106c565b611229604083018461106c565b949350505050565b5f61123b82611122565b9050919050565b61124b81611231565b8114611255575f5ffd5b50565b5f8135905061126681611242565b92915050565b5f5f604083850312156112825761128161111e565b5b5f61128f85828601611258565b92505060206112a0858286016111bd565b9150509250929050565b6112b381611141565b82525050565b5f6020820190506112cc5f8301846112aa565b92915050565b5f8115159050919050565b6112e6816112d2565b82525050565b5f6020820190506112ff5f8301846112dd565b92915050565b5f6040820190506113185f83018561106c565b611325602083018461106c565b9392505050565b5f61133682611003565b915061134183611003565b92508282039050818111156113595761135861100c565b5b92915050565b5f81905092915050565b50565b5f6113775f8361135f565b915061138282611369565b5f82019050919050565b5f6113968261136c565b9150819050919050565b5f6040820190506113b35f8301856112aa565b6113c0602083018461106c565b9392505050565b5f819050919050565b5f819050919050565b5f6113f36113ee6113e9846113c7565b6113d0565b611003565b9050919050565b611403816113d9565b82525050565b5f819050919050565b5f61142c61142761142284611409565b6113d0565b611003565b9050919050565b61143c81611412565b82525050565b5f6040820190506114555f8301856113fa565b6114626020830184611433565b9392505050565b5f61148361147e61147984611122565b6113d0565b611122565b9050919050565b5f61149482611469565b9050919050565b5f6114a58261148a565b9050919050565b6114b58161149b565b82525050565b5f6040820190506114ce5f8301856114ac565b6114db602083018461106c565b9392505050565b5f819050919050565b5f6115056115006114fb846114e2565b6113d0565b611003565b9050919050565b611515816114eb565b82525050565b5f60408201905061152e5f83018561106c565b61153b602083018461150c565b939250505056fea2646970667358221220be2815f6cdd8c26126e7f3a0aab71e319e250d1214c8da10956ee4689d48888b64736f6c63430008230033","linkReferences":{}},"methodIdentifiers":{"balances(address)":"27e235e3","deposit()":"d0e30db0","ethUnits()":"8353471d","getBalance(address)":"f8b2cb4f","getContractBalance()":"6f9fb98a","isVIP(address)":"f4201c3c","owner()":"8da5cb5b","sendViaCall(address,uint256)":"e4dc4f55","sendViaSend(address,uint256)":"8c7736f4","sendViaTransfer(address,uint256)":"d27f8e66","totalDeposits()":"7d882097","withdraw(uint256)":"2e1a7d4d","withdrawAll()":"853828b6"},"id":1}