{"abi":[{"type":"function","name":"getInfo","inputs":[{"name":"animal","type":"address","internalType":"contract IAnimal"}],"outputs":[{"name":"sound","type":"string","internalType":"string"},{"name":"legCount","type":"uint256","internalType":"uint256"}],"stateMutability":"view"},{"type":"function","name":"isFourLegged","inputs":[{"name":"animal","type":"address","internalType":"contract IAnimal"}],"outputs":[{"name":"","type":"bool","internalType":"bool"}],"stateMutability":"pure"}],"bytecode":{"object":"0x6080604052348015600e575f5ffd5b5061057a8061001c5f395ff3fe608060405234801561000f575f5ffd5b5060043610610034575f3560e01c806324e6daae14610038578063ffdd5cf114610068575b5f5ffd5b610052600480360381019061004d9190610276565b610099565b60405161005f91906102bb565b60405180910390f35b610082600480360381019061007d9190610276565b610111565b60405161009092919061035c565b60405180910390f35b5f60048273ffffffffffffffffffffffffffffffffffffffff1663f4f330946040518163ffffffff1660e01b8152600401602060405180830381865afa1580156100e5573d5f5f3e3d5ffd5b505050506040513d601f19601f8201168201806040525081019061010991906103b4565b149050919050565b60605f8273ffffffffffffffffffffffffffffffffffffffff166350d853156040518163ffffffff1660e01b81526004015f60405180830381865afa15801561015c573d5f5f3e3d5ffd5b505050506040513d5f823e3d601f19601f8201168201806040525081019061018491906104fd565b91508273ffffffffffffffffffffffffffffffffffffffff1663f4f330946040518163ffffffff1660e01b8152600401602060405180830381865afa1580156101cf573d5f5f3e3d5ffd5b505050506040513d601f19601f820116820180604052508101906101f391906103b4565b9050915091565b5f604051905090565b5f5ffd5b5f5ffd5b5f73ffffffffffffffffffffffffffffffffffffffff82169050919050565b5f6102348261020b565b9050919050565b5f6102458261022a565b9050919050565b6102558161023b565b811461025f575f5ffd5b50565b5f813590506102708161024c565b92915050565b5f6020828403121561028b5761028a610203565b5b5f61029884828501610262565b91505092915050565b5f8115159050919050565b6102b5816102a1565b82525050565b5f6020820190506102ce5f8301846102ac565b92915050565b5f81519050919050565b5f82825260208201905092915050565b8281835e5f83830152505050565b5f601f19601f8301169050919050565b5f610316826102d4565b61032081856102de565b93506103308185602086016102ee565b610339816102fc565b840191505092915050565b5f819050919050565b61035681610344565b82525050565b5f6040820190508181035f830152610374818561030c565b9050610383602083018461034d565b9392505050565b61039381610344565b811461039d575f5ffd5b50565b5f815190506103ae8161038a565b92915050565b5f602082840312156103c9576103c8610203565b5b5f6103d6848285016103a0565b91505092915050565b5f5ffd5b5f5ffd5b7f4e487b71000000000000000000000000000000000000000000000000000000005f52604160045260245ffd5b61041d826102fc565b810181811067ffffffffffffffff8211171561043c5761043b6103e7565b5b80604052505050565b5f61044e6101fa565b905061045a8282610414565b919050565b5f67ffffffffffffffff821115610479576104786103e7565b5b610482826102fc565b9050602081019050919050565b5f6104a161049c8461045f565b610445565b9050828152602081018484840111156104bd576104bc6103e3565b5b6104c88482856102ee565b509392505050565b5f82601f8301126104e4576104e36103df565b5b81516104f484826020860161048f565b91505092915050565b5f6020828403121561051257610511610203565b5b5f82015167ffffffffffffffff81111561052f5761052e610207565b5b61053b848285016104d0565b9150509291505056fea264697066735822122000de03cf9ef810b53fbee3ac8c1150ef3b0dc5e9289bfc5c09f77e098ebdf14764736f6c63430008230033","linkReferences":{}},"methodIdentifiers":{"getInfo(address)":"ffdd5cf1","isFourLegged(address)":"24e6daae"},"id":1}