{"abi":[{"type":"constructor","inputs":[{"name":"_name","type":"string","internalType":"string"},{"name":"sound_","type":"string","internalType":"string"}],"stateMutability":"nonpayable"},{"type":"function","name":"description","inputs":[],"outputs":[{"name":"","type":"string","internalType":"string"}],"stateMutability":"view"},{"type":"function","name":"feed","inputs":[{"name":"food","type":"string","internalType":"string"}],"outputs":[],"stateMutability":"nonpayable"},{"type":"function","name":"legs","inputs":[],"outputs":[{"name":"","type":"uint256","internalType":"uint256"}],"stateMutability":"pure"},{"type":"function","name":"name","inputs":[],"outputs":[{"name":"","type":"string","internalType":"string"}],"stateMutability":"view"},{"type":"function","name":"owner","inputs":[],"outputs":[{"name":"","type":"address","internalType":"address"}],"stateMutability":"view"},{"type":"function","name":"speak","inputs":[],"outputs":[{"name":"","type":"string","internalType":"string"}],"stateMutability":"view"},{"type":"event","name":"Fed","inputs":[{"name":"feeder","type":"address","indexed":true,"internalType":"address"},{"name":"food","type":"string","indexed":false,"internalType":"string"}],"anonymous":false}],"bytecode":{"object":"0x608060405234801561000f575f5ffd5b50604051610c76380380610c76833981810160405281019061003191906101e6565b81805f9081610040919061047d565b503360015f6101000a81548173ffffffffffffffffffffffffffffffffffffffff021916908373ffffffffffffffffffffffffffffffffffffffff160217905550508060029081610091919061047d565b50505061054c565b5f604051905090565b5f5ffd5b5f5ffd5b5f5ffd5b5f5ffd5b5f601f19601f8301169050919050565b7f4e487b71000000000000000000000000000000000000000000000000000000005f52604160045260245ffd5b6100f8826100b2565b810181811067ffffffffffffffff82111715610117576101166100c2565b5b80604052505050565b5f610129610099565b905061013582826100ef565b919050565b5f67ffffffffffffffff821115610154576101536100c2565b5b61015d826100b2565b9050602081019050919050565b8281835e5f83830152505050565b5f61018a6101858461013a565b610120565b9050828152602081018484840111156101a6576101a56100ae565b5b6101b184828561016a565b509392505050565b5f82601f8301126101cd576101cc6100aa565b5b81516101dd848260208601610178565b91505092915050565b5f5f604083850312156101fc576101fb6100a2565b5b5f83015167ffffffffffffffff811115610219576102186100a6565b5b610225858286016101b9565b925050602083015167ffffffffffffffff811115610246576102456100a6565b5b610252858286016101b9565b9150509250929050565b5f81519050919050565b7f4e487b71000000000000000000000000000000000000000000000000000000005f52602260045260245ffd5b5f60028204905060018216806102aa57607f821691505b6020821081036102bd576102bc610266565b5b50919050565b5f819050815f5260205f209050919050565b5f6020601f8301049050919050565b5f82821b905092915050565b5f6008830261031f7fffffffffffffffffffffffffffffffffffffffffffffffffffffffffffffffff826102e4565b61032986836102e4565b95508019841693508086168417925050509392505050565b5f819050919050565b5f819050919050565b5f61036d61036861036384610341565b61034a565b610341565b9050919050565b5f819050919050565b61038683610353565b61039a61039282610374565b8484546102f0565b825550505050565b5f5f905090565b6103b16103a2565b6103bc81848461037d565b505050565b5f5b828110156103e2576103d75f8284016103a9565b6001810190506103c3565b505050565b601f821115610435578282111561043457610401816102c3565b61040a836102d5565b610413856102d5565b6020861015610420575f90505b80830161042f828403826103c1565b505050505b5b505050565b5f82821c905092915050565b5f6104555f198460080261043a565b1980831691505092915050565b5f61046d8383610446565b9150826002028217905092915050565b6104868261025c565b67ffffffffffffffff81111561049f5761049e6100c2565b5b6104a98254610293565b6104b48282856103e7565b5f60209050601f8311600181146104e5575f84156104d3578287015190505b6104dd8582610462565b865550610544565b601f1984166104f3866102c3565b5f5b8281101561051a578489015182556001820191506020850194506020810190506104f5565b868310156105375784890151610533601f891682610446565b8355505b6001600288020188555050505b505050505050565b61071d806105595f395ff3fe608060405234801561000f575f5ffd5b5060043610610060575f3560e01c806306fdde031461006457806350d85315146100825780637284e416146100a05780638da5cb5b146100be578063e73ade8e146100dc578063f4f33094146100f8575b5f5ffd5b61006c610116565b6040516100799190610349565b60405180910390f35b61008a6101a1565b6040516100979190610349565b60405180910390f35b6100a8610231565b6040516100b59190610349565b60405180910390f35b6100c661025b565b6040516100d391906103a8565b60405180910390f35b6100f660048036038101906100f191906104fe565b610280565b005b6101006102d1565b60405161010d919061055d565b60405180910390f35b5f8054610122906105a3565b80601f016020809104026020016040519081016040528092919081815260200182805461014e906105a3565b80156101995780601f1061017057610100808354040283529160200191610199565b820191905f5260205f20905b81548152906001019060200180831161017c57829003601f168201915b505050505081565b6060600280546101b0906105a3565b80601f01602080910402602001604051908101604052809291908181526020018280546101dc906105a3565b80156102275780601f106101fe57610100808354040283529160200191610227565b820191905f5260205f20905b81548152906001019060200180831161020a57829003601f168201915b5050505050905090565b60605f60026040516020016102479291906106b9565b604051602081830303815290604052905090565b60015f9054906101000a900473ffffffffffffffffffffffffffffffffffffffff1681565b3373ffffffffffffffffffffffffffffffffffffffff167ff70e1af49258bd75d18933c98608ca4c43d6ff60c77783a0ae7c1de1ed8f4a1d826040516102c69190610349565b60405180910390a250565b5f6004905090565b5f81519050919050565b5f82825260208201905092915050565b8281835e5f83830152505050565b5f601f19601f8301169050919050565b5f61031b826102d9565b61032581856102e3565b93506103358185602086016102f3565b61033e81610301565b840191505092915050565b5f6020820190508181035f8301526103618184610311565b905092915050565b5f73ffffffffffffffffffffffffffffffffffffffff82169050919050565b5f61039282610369565b9050919050565b6103a281610388565b82525050565b5f6020820190506103bb5f830184610399565b92915050565b5f604051905090565b5f5ffd5b5f5ffd5b5f5ffd5b5f5ffd5b7f4e487b71000000000000000000000000000000000000000000000000000000005f52604160045260245ffd5b61041082610301565b810181811067ffffffffffffffff8211171561042f5761042e6103da565b5b80604052505050565b5f6104416103c1565b905061044d8282610407565b919050565b5f67ffffffffffffffff82111561046c5761046b6103da565b5b61047582610301565b9050602081019050919050565b828183375f83830152505050565b5f6104a261049d84610452565b610438565b9050828152602081018484840111156104be576104bd6103d6565b5b6104c9848285610482565b509392505050565b5f82601f8301126104e5576104e46103d2565b5b81356104f5848260208601610490565b91505092915050565b5f60208284031215610513576105126103ca565b5b5f82013567ffffffffffffffff8111156105305761052f6103ce565b5b61053c848285016104d1565b91505092915050565b5f819050919050565b61055781610545565b82525050565b5f6020820190506105705f83018461054e565b92915050565b7f4e487b71000000000000000000000000000000000000000000000000000000005f52602260045260245ffd5b5f60028204905060018216806105ba57607f821691505b6020821081036105cd576105cc610576565b5b50919050565b5f81905092915050565b5f819050815f5260205f209050919050565b5f81546105fb816105a3565b61060581866105d3565b9450600182165f811461061f576001811461063457610666565b60ff1983168652811515820286019350610666565b61063d856105dd565b5f5b8381101561065e5781548189015260018201915060208101905061063f565b838801955050505b50505092915050565b7f20736179732000000000000000000000000000000000000000000000000000005f82015250565b5f6106a36006836105d3565b91506106ae8261066f565b600682019050919050565b5f6106c482856105ef565b91506106cf82610697565b91506106db82846105ef565b9150819050939250505056fea26469706673582212206fb91ca2d90a037b80cd4a10d371767d29ede39f57411257c5bcdff5db3a409264736f6c63430008230033","linkReferences":{}},"methodIdentifiers":{"description()":"7284e416","feed(string)":"e73ade8e","legs()":"f4f33094","name()":"06fdde03","owner()":"8da5cb5b","speak()":"50d85315"},"id":1}