{"abi":[{"type":"constructor","inputs":[{"name":"_name","type":"string","internalType":"string"},{"name":"_sound","type":"string","internalType":"string"}],"stateMutability":"nonpayable"},{"type":"function","name":"count","inputs":[],"outputs":[{"name":"","type":"uint256","internalType":"uint256"}],"stateMutability":"view"},{"type":"function","name":"description","inputs":[],"outputs":[{"name":"","type":"string","internalType":"string"}],"stateMutability":"view"},{"type":"function","name":"feed","inputs":[{"name":"food","type":"string","internalType":"string"}],"outputs":[],"stateMutability":"nonpayable"},{"type":"function","name":"legs","inputs":[],"outputs":[{"name":"","type":"uint256","internalType":"uint256"}],"stateMutability":"pure"},{"type":"function","name":"name","inputs":[],"outputs":[{"name":"","type":"string","internalType":"string"}],"stateMutability":"view"},{"type":"function","name":"owner","inputs":[],"outputs":[{"name":"","type":"address","internalType":"address"}],"stateMutability":"view"},{"type":"function","name":"pause","inputs":[],"outputs":[],"stateMutability":"nonpayable"},{"type":"function","name":"paused","inputs":[],"outputs":[{"name":"","type":"bool","internalType":"bool"}],"stateMutability":"view"},{"type":"function","name":"register","inputs":[],"outputs":[],"stateMutability":"nonpayable"},{"type":"function","name":"speak","inputs":[],"outputs":[{"name":"","type":"string","internalType":"string"}],"stateMutability":"view"},{"type":"function","name":"unpause","inputs":[],"outputs":[],"stateMutability":"nonpayable"},{"type":"event","name":"Counted","inputs":[{"name":"newCount","type":"uint256","indexed":false,"internalType":"uint256"}],"anonymous":false},{"type":"event","name":"Fed","inputs":[{"name":"feeder","type":"address","indexed":true,"internalType":"address"},{"name":"food","type":"string","indexed":false,"internalType":"string"}],"anonymous":false},{"type":"event","name":"Paused","inputs":[{"name":"account","type":"address","indexed":false,"internalType":"address"}],"anonymous":false},{"type":"event","name":"Unpaused","inputs":[{"name":"account","type":"address","indexed":false,"internalType":"address"}],"anonymous":false},{"type":"error","name":"ContractPaused","inputs":[]},{"type":"error","name":"NotPauseAdmin","inputs":[{"name":"caller","type":"address","internalType":"address"}]}],"bytecode":{"object":"0x608060405234801561000f575f5ffd5b5060405161113d38038061113d8339818101604052810190610031919061022b565b818181805f908161004291906104c2565b503360015f6101000a81548173ffffffffffffffffffffffffffffffffffffffff021916908373ffffffffffffffffffffffffffffffffffffffff16021790555050806002908161009391906104c2565b50505033600360016101000a81548173ffffffffffffffffffffffffffffffffffffffff021916908373ffffffffffffffffffffffffffffffffffffffff1602179055505050610591565b5f604051905090565b5f5ffd5b5f5ffd5b5f5ffd5b5f5ffd5b5f601f19601f8301169050919050565b7f4e487b71000000000000000000000000000000000000000000000000000000005f52604160045260245ffd5b61013d826100f7565b810181811067ffffffffffffffff8211171561015c5761015b610107565b5b80604052505050565b5f61016e6100de565b905061017a8282610134565b919050565b5f67ffffffffffffffff82111561019957610198610107565b5b6101a2826100f7565b9050602081019050919050565b8281835e5f83830152505050565b5f6101cf6101ca8461017f565b610165565b9050828152602081018484840111156101eb576101ea6100f3565b5b6101f68482856101af565b509392505050565b5f82601f830112610212576102116100ef565b5b81516102228482602086016101bd565b91505092915050565b5f5f60408385031215610241576102406100e7565b5b5f83015167ffffffffffffffff81111561025e5761025d6100eb565b5b61026a858286016101fe565b925050602083015167ffffffffffffffff81111561028b5761028a6100eb565b5b610297858286016101fe565b9150509250929050565b5f81519050919050565b7f4e487b71000000000000000000000000000000000000000000000000000000005f52602260045260245ffd5b5f60028204905060018216806102ef57607f821691505b602082108103610302576103016102ab565b5b50919050565b5f819050815f5260205f209050919050565b5f6020601f8301049050919050565b5f82821b905092915050565b5f600883026103647fffffffffffffffffffffffffffffffffffffffffffffffffffffffffffffffff82610329565b61036e8683610329565b95508019841693508086168417925050509392505050565b5f819050919050565b5f819050919050565b5f6103b26103ad6103a884610386565b61038f565b610386565b9050919050565b5f819050919050565b6103cb83610398565b6103df6103d7826103b9565b848454610335565b825550505050565b5f5f905090565b6103f66103e7565b6104018184846103c2565b505050565b5f5b828110156104275761041c5f8284016103ee565b600181019050610408565b505050565b601f82111561047a57828211156104795761044681610308565b61044f8361031a565b6104588561031a565b6020861015610465575f90505b80830161047482840382610406565b505050505b5b505050565b5f82821c905092915050565b5f61049a5f198460080261047f565b1980831691505092915050565b5f6104b2838361048b565b9150826002028217905092915050565b6104cb826102a1565b67ffffffffffffffff8111156104e4576104e3610107565b5b6104ee82546102d8565b6104f982828561042c565b5f60209050601f83116001811461052a575f8415610518578287015190505b61052285826104a7565b865550610589565b601f19841661053886610308565b5f5b8281101561055f5784890151825560018201915060208501945060208101905061053a565b8683101561057c5784890151610578601f89168261048b565b8355505b6001600288020188555050505b505050505050565b610b9f8061059e5f395ff3fe608060405234801561000f575f5ffd5b50600436106100a7575f3560e01c80635c975abb1161006f5780635c975abb146101195780637284e416146101375780638456cb59146101555780638da5cb5b1461015f578063e73ade8e1461017d578063f4f3309414610199576100a7565b806306661abd146100ab57806306fdde03146100c95780631aa3a008146100e75780633f4ba83a146100f157806350d85315146100fb575b5f5ffd5b6100b36101b7565b6040516100c09190610645565b60405180910390f35b6100d16101bd565b6040516100de91906106ce565b60405180910390f35b6100ef610248565b005b6100f9610298565b005b61010361037c565b60405161011091906106ce565b60405180910390f35b61012161040c565b60405161012e9190610708565b60405180910390f35b61013f61041e565b60405161014c91906106ce565b60405180910390f35b61015d61044c565b005b610167610531565b6040516101749190610760565b60405180910390f35b610197600480360381019061019291906108b6565b610556565b005b6101a16105a7565b6040516101ae9190610645565b60405180910390f35b60045481565b5f80546101c99061092a565b80601f01602080910402602001604051908101604052809291908181526020018280546101f59061092a565b80156102405780601f1061021757610100808354040283529160200191610240565b820191905f5260205f20905b81548152906001019060200180831161022357829003601f168201915b505050505081565b60035f9054906101000a900460ff161561028e576040517fab35696f00000000000000000000000000000000000000000000000000000000815260040160405180910390fd5b6102966105af565b565b600360019054906101000a900473ffffffffffffffffffffffffffffffffffffffff1673ffffffffffffffffffffffffffffffffffffffff163373ffffffffffffffffffffffffffffffffffffffff161461032a57336040517fa25e5d940000000000000000000000000000000000000000000000000000000081526004016103219190610760565b60405180910390fd5b5f60035f6101000a81548160ff0219169083151502179055507f5db9ee0a495bf2e6ff9c91a7834c1ba4fdd244a5e8aa4e537bd38aeae4b073aa336040516103729190610760565b60405180910390a1565b60606002805461038b9061092a565b80601f01602080910402602001604051908101604052809291908181526020018280546103b79061092a565b80156104025780601f106103d957610100808354040283529160200191610402565b820191905f5260205f20905b8154815290600101906020018083116103e557829003601f168201915b5050505050905090565b60035f9054906101000a900460ff1681565b6060610428610603565b60405160200161043891906109de565b604051602081830303815290604052905090565b600360019054906101000a900473ffffffffffffffffffffffffffffffffffffffff1673ffffffffffffffffffffffffffffffffffffffff163373ffffffffffffffffffffffffffffffffffffffff16146104de57336040517fa25e5d940000000000000000000000000000000000000000000000000000000081526004016104d59190610760565b60405180910390fd5b600160035f6101000a81548160ff0219169083151502179055507f62e78cea01bee320cd4e420270b5ea74000d11b0c9f74754ebdbfc544b05a258336040516105279190610760565b60405180910390a1565b60015f9054906101000a900473ffffffffffffffffffffffffffffffffffffffff1681565b3373ffffffffffffffffffffffffffffffffffffffff167ff70e1af49258bd75d18933c98608ca4c43d6ff60c77783a0ae7c1de1ed8f4a1d8260405161059c91906106ce565b60405180910390a250565b5f6004905090565b600160045f8282546105c19190610a2c565b925050819055507f15df0a6785153dfd625c8af51397704c7ddaff0690e5076243b5e52f4a0d54096004546040516105f99190610645565b60405180910390a1565b60605f6002604051602001610619929190610b3b565b604051602081830303815290604052905090565b5f819050919050565b61063f8161062d565b82525050565b5f6020820190506106585f830184610636565b92915050565b5f81519050919050565b5f82825260208201905092915050565b8281835e5f83830152505050565b5f601f19601f8301169050919050565b5f6106a08261065e565b6106aa8185610668565b93506106ba818560208601610678565b6106c381610686565b840191505092915050565b5f6020820190508181035f8301526106e68184610696565b905092915050565b5f8115159050919050565b610702816106ee565b82525050565b5f60208201905061071b5f8301846106f9565b92915050565b5f73ffffffffffffffffffffffffffffffffffffffff82169050919050565b5f61074a82610721565b9050919050565b61075a81610740565b82525050565b5f6020820190506107735f830184610751565b92915050565b5f604051905090565b5f5ffd5b5f5ffd5b5f5ffd5b5f5ffd5b7f4e487b71000000000000000000000000000000000000000000000000000000005f52604160045260245ffd5b6107c882610686565b810181811067ffffffffffffffff821117156107e7576107e6610792565b5b80604052505050565b5f6107f9610779565b905061080582826107bf565b919050565b5f67ffffffffffffffff82111561082457610823610792565b5b61082d82610686565b9050602081019050919050565b828183375f83830152505050565b5f61085a6108558461080a565b6107f0565b9050828152602081018484840111156108765761087561078e565b5b61088184828561083a565b509392505050565b5f82601f83011261089d5761089c61078a565b5b81356108ad848260208601610848565b91505092915050565b5f602082840312156108cb576108ca610782565b5b5f82013567ffffffffffffffff8111156108e8576108e7610786565b5b6108f484828501610889565b91505092915050565b7f4e487b71000000000000000000000000000000000000000000000000000000005f52602260045260245ffd5b5f600282049050600182168061094157607f821691505b602082108103610954576109536108fd565b5b50919050565b5f81905092915050565b7f5b50657453686f705d20000000000000000000000000000000000000000000005f82015250565b5f610998600a8361095a565b91506109a382610964565b600a82019050919050565b5f6109b88261065e565b6109c2818561095a565b93506109d2818560208601610678565b80840191505092915050565b5f6109e88261098c565b91506109f482846109ae565b915081905092915050565b7f4e487b71000000000000000000000000000000000000000000000000000000005f52601160045260245ffd5b5f610a368261062d565b9150610a418361062d565b9250828201905080821115610a5957610a586109ff565b5b92915050565b5f819050815f5260205f209050919050565b5f8154610a7d8161092a565b610a87818661095a565b9450600182165f8114610aa15760018114610ab657610ae8565b60ff1983168652811515820286019350610ae8565b610abf85610a5f565b5f5b83811015610ae057815481890152600182019150602081019050610ac1565b838801955050505b50505092915050565b7f20736179732000000000000000000000000000000000000000000000000000005f82015250565b5f610b2560068361095a565b9150610b3082610af1565b600682019050919050565b5f610b468285610a71565b9150610b5182610b19565b9150610b5d8284610a71565b9150819050939250505056fea26469706673582212200badaa750778cae8bf184eb1b5ec28553723bee6b27916b44606240a7b861cb364736f6c63430008230033","linkReferences":{}},"methodIdentifiers":{"count()":"06661abd","description()":"7284e416","feed(string)":"e73ade8e","legs()":"f4f33094","name()":"06fdde03","owner()":"8da5cb5b","pause()":"8456cb59","paused()":"5c975abb","register()":"1aa3a008","speak()":"50d85315","unpause()":"3f4ba83a"},"id":1}