{"abi":[{"type":"constructor","inputs":[],"stateMutability":"nonpayable"},{"type":"function","name":"addScore","inputs":[{"name":"score","type":"uint256","internalType":"uint256"}],"outputs":[],"stateMutability":"nonpayable"},{"type":"function","name":"addScoreStrict","inputs":[{"name":"score","type":"uint256","internalType":"uint256"}],"outputs":[],"stateMutability":"nonpayable"},{"type":"function","name":"addToWhitelist","inputs":[{"name":"user","type":"address","internalType":"address"}],"outputs":[],"stateMutability":"nonpayable"},{"type":"function","name":"counter","inputs":[],"outputs":[{"name":"","type":"uint256","internalType":"uint256"}],"stateMutability":"view"},{"type":"function","name":"findFirstAbove","inputs":[{"name":"threshold","type":"uint256","internalType":"uint256"}],"outputs":[{"name":"","type":"uint256","internalType":"uint256"}],"stateMutability":"view"},{"type":"function","name":"getGrade","inputs":[{"name":"score","type":"uint256","internalType":"uint256"}],"outputs":[{"name":"","type":"string","internalType":"string"}],"stateMutability":"pure"},{"type":"function","name":"increment","inputs":[],"outputs":[],"stateMutability":"nonpayable"},{"type":"function","name":"max","inputs":[{"name":"a","type":"uint256","internalType":"uint256"},{"name":"b","type":"uint256","internalType":"uint256"}],"outputs":[{"name":"","type":"uint256","internalType":"uint256"}],"stateMutability":"pure"},{"type":"function","name":"owner","inputs":[],"outputs":[{"name":"","type":"address","internalType":"address"}],"stateMutability":"view"},{"type":"function","name":"pause","inputs":[],"outputs":[],"stateMutability":"nonpayable"},{"type":"function","name":"paused","inputs":[],"outputs":[{"name":"","type":"bool","internalType":"bool"}],"stateMutability":"view"},{"type":"function","name":"removeWhiteList","inputs":[{"name":"user","type":"address","internalType":"address"}],"outputs":[],"stateMutability":"nonpayable"},{"type":"function","name":"scores","inputs":[{"name":"","type":"uint256","internalType":"uint256"}],"outputs":[{"name":"","type":"uint256","internalType":"uint256"}],"stateMutability":"view"},{"type":"function","name":"scoresLength","inputs":[],"outputs":[{"name":"","type":"uint256","internalType":"uint256"}],"stateMutability":"view"},{"type":"function","name":"totalScore","inputs":[],"outputs":[{"name":"total","type":"uint256","internalType":"uint256"}],"stateMutability":"view"},{"type":"function","name":"unpause","inputs":[],"outputs":[],"stateMutability":"nonpayable"},{"type":"function","name":"vipIncrement","inputs":[],"outputs":[],"stateMutability":"nonpayable"},{"type":"function","name":"whitelist","inputs":[{"name":"","type":"address","internalType":"address"}],"outputs":[{"name":"","type":"bool","internalType":"bool"}],"stateMutability":"view"},{"type":"event","name":"CounterIncremented","inputs":[{"name":"by","type":"address","indexed":true,"internalType":"address"},{"name":"newValue","type":"uint256","indexed":false,"internalType":"uint256"}],"anonymous":false},{"type":"event","name":"Paused","inputs":[{"name":"by","type":"address","indexed":false,"internalType":"address"}],"anonymous":false},{"type":"event","name":"ScoreAdded","inputs":[{"name":"score","type":"uint256","indexed":false,"internalType":"uint256"}],"anonymous":false},{"type":"event","name":"Unpaused","inputs":[{"name":"by","type":"address","indexed":false,"internalType":"address"}],"anonymous":false},{"type":"error","name":"ContractPaused","inputs":[]},{"type":"error","name":"ExceesLimit","inputs":[{"name":"limit","type":"uint256","internalType":"uint256"}]},{"type":"error","name":"InvalidScore","inputs":[{"name":"score","type":"uint256","internalType":"uint256"},{"name":"reason","type":"string","internalType":"string"}]},{"type":"error","name":"NoScores","inputs":[]},{"type":"error","name":"NotExceed","inputs":[{"name":"msg","type":"string","internalType":"string"}]},{"type":"error","name":"NotOwner","inputs":[{"name":"caller","type":"address","internalType":"address"},{"name":"requiredOwner","type":"address","internalType":"address"}]},{"type":"error","name":"NotWhitelisted","inputs":[{"name":"caller","type":"address","internalType":"address"}]}],"bytecode":{"object":"0x6080604052348015600e575f5ffd5b50335f5f6101000a81548173ffffffffffffffffffffffffffffffffffffffff021916908373ffffffffffffffffffffffffffffffffffffffff1602179055505f5f60146101000a81548160ff0219169083151502179055505f6001819055506113848061007b5f395ff3fe608060405234801561000f575f5ffd5b5060043610610114575f3560e01c80636d5433e6116100a05780639b19251a1161006f5780639b19251a14610292578063c006719f146102c2578063d09de08a146102e0578063e1e0485e146102ea578063e43252d71461031a57610114565b80636d5433e61461021c578063762144e21461024c5780638456cb591461026a5780638da5cb5b1461027457610114565b80632ee691a3116100e75780632ee691a31461018a5780633f4ba83a146101ba57806347ca7993146101c45780635c975abb146101e057806361bc221a146101fe57610114565b806310b2afce146101185780632042e5c214610134578063289f5704146101505780632d5cfb3814610180575b5f5ffd5b610132600480360381019061012d9190610ed1565b610336565b005b61014e60048036038101906101499190610f56565b610420565b005b61016a60048036038101906101659190610ed1565b610521565b6040516101779190610f90565b60405180910390f35b6101886105c7565b005b6101a4600480360381019061019f9190610ed1565b610703565b6040516101b19190610f90565b60405180910390f35b6101c2610723565b005b6101de60048036038101906101d99190610ed1565b610827565b005b6101e8610957565b6040516101f59190610fc3565b60405180910390f35b610206610969565b6040516102139190610f90565b60405180910390f35b61023660048036038101906102319190610fdc565b61096f565b6040516102439190610f90565b60405180910390f35b610254610988565b6040516102619190610f90565b60405180910390f35b610272610994565b005b61027c610a99565b6040516102899190611029565b60405180910390f35b6102ac60048036038101906102a79190610f56565b610abd565b6040516102b99190610fc3565b60405180910390f35b6102ca610ada565b6040516102d79190610f90565b60405180910390f35b6102e8610b28565b005b61030460048036038101906102ff9190610ed1565b610c3b565b60405161031191906110b2565b60405180910390f35b610334600480360381019061032f9190610f56565b610d4a565b005b5f60149054906101000a900460ff161561037c576040517fab35696f00000000000000000000000000000000000000000000000000000000815260040160405180910390fd5b60648111156103c0576040517feac232b00000000000000000000000000000000000000000000000000000000081526004016103b79061111c565b60405180910390fd5b600381908060018154018082558091505060019003905f5260205f20015f90919091909150557f1afa89fdcfba81e0c354610fdee215699a891e29a20745049fa9e280771ffaed816040516104159190610f90565b60405180910390a150565b5f5f9054906101000a900473ffffffffffffffffffffffffffffffffffffffff1673ffffffffffffffffffffffffffffffffffffffff163373ffffffffffffffffffffffffffffffffffffffff16146104d257335f5f9054906101000a900473ffffffffffffffffffffffffffffffffffffffff166040517f23295f0e0000000000000000000000000000000000000000000000000000000081526004016104c992919061113a565b60405180910390fd5b60025f8273ffffffffffffffffffffffffffffffffffffffff1673ffffffffffffffffffffffffffffffffffffffff1681526020019081526020015f205f6101000a81549060ff021916905550565b5f5f5f90505b60038054905081101561059057826003828154811061054957610548611161565b5b905f5260205f200154111561057d576003818154811061056c5761056b611161565b5b905f5260205f2001549150506105c2565b8080610588906111bb565b915050610527565b6040517fb4c4e80a00000000000000000000000000000000000000000000000000000000815260040160405180910390fd5b919050565b60025f3373ffffffffffffffffffffffffffffffffffffffff1673ffffffffffffffffffffffffffffffffffffffff1681526020019081526020015f205f9054906101000a900460ff1661065257336040517fdf17e3160000000000000000000000000000000000000000000000000000000081526004016106499190611029565b60405180910390fd5b5f60149054906101000a900460ff1615610698576040517fab35696f00000000000000000000000000000000000000000000000000000000815260040160405180910390fd5b600a60015f8282546106aa9190611202565b925050819055503373ffffffffffffffffffffffffffffffffffffffff167f59950fb23669ee30425f6d79758e75fae698a6c88b2982f2980638d8bcd9397d6001546040516106f99190610f90565b60405180910390a2565b60038181548110610712575f80fd5b905f5260205f20015f915090505481565b5f5f9054906101000a900473ffffffffffffffffffffffffffffffffffffffff1673ffffffffffffffffffffffffffffffffffffffff163373ffffffffffffffffffffffffffffffffffffffff16146107d557335f5f9054906101000a900473ffffffffffffffffffffffffffffffffffffffff166040517f23295f0e0000000000000000000000000000000000000000000000000000000081526004016107cc92919061113a565b60405180910390fd5b5f5f60146101000a81548160ff0219169083151502179055507f5db9ee0a495bf2e6ff9c91a7834c1ba4fdd244a5e8aa4e537bd38aeae4b073aa3360405161081d9190611029565b60405180910390a1565b5f60149054906101000a900460ff161561086d576040517fab35696f00000000000000000000000000000000000000000000000000000000815260040160405180910390fd5b5f81036108b157806040517f2f2c6d520000000000000000000000000000000000000000000000000000000081526004016108a8919061127f565b60405180910390fd5b60648111156108f757806040517f2f2c6d520000000000000000000000000000000000000000000000000000000081526004016108ee91906112f5565b60405180910390fd5b600381908060018154018082558091505060019003905f5260205f20015f90919091909150557f1afa89fdcfba81e0c354610fdee215699a891e29a20745049fa9e280771ffaed8160405161094c9190610f90565b60405180910390a150565b5f60149054906101000a900460ff1681565b60015481565b5f8183101561097e5781610980565b825b905092915050565b5f600380549050905090565b5f5f9054906101000a900473ffffffffffffffffffffffffffffffffffffffff1673ffffffffffffffffffffffffffffffffffffffff163373ffffffffffffffffffffffffffffffffffffffff1614610a4657335f5f9054906101000a900473ffffffffffffffffffffffffffffffffffffffff166040517f23295f0e000000000000000000000000000000000000000000000000000000008152600401610a3d92919061113a565b60405180910390fd5b60015f60146101000a81548160ff0219169083151502179055507f62e78cea01bee320cd4e420270b5ea74000d11b0c9f74754ebdbfc544b05a25833604051610a8f9190611029565b60405180910390a1565b5f5f9054906101000a900473ffffffffffffffffffffffffffffffffffffffff1681565b6002602052805f5260405f205f915054906101000a900460ff1681565b5f5f5f90505b600380549050811015610b245760038181548110610b0157610b00611161565b5b905f5260205f20015482610b159190611202565b91508080600101915050610ae0565b5090565b5f60149054906101000a900460ff1615610b6e576040517fab35696f00000000000000000000000000000000000000000000000000000000815260040160405180910390fd5b6064806001541115610bb757806040517fb0c9e1e7000000000000000000000000000000000000000000000000000000008152600401610bae9190610f90565b60405180910390fd5b5f60015490506001805f828254610bce9190611202565b925050819055503373ffffffffffffffffffffffffffffffffffffffff167f59950fb23669ee30425f6d79758e75fae698a6c88b2982f2980638d8bcd9397d600154604051610c1d9190610f90565b60405180910390a28060015411610c3757610c36611321565b5b5050565b6060605a8210610c82576040518060400160405280600181526020017f41000000000000000000000000000000000000000000000000000000000000008152509050610d45565b60508210610cc7576040518060400160405280600181526020017f42000000000000000000000000000000000000000000000000000000000000008152509050610d45565b603c8210610d0c576040518060400160405280600181526020017f43000000000000000000000000000000000000000000000000000000000000008152509050610d45565b6040518060400160405280600181526020017f440000000000000000000000000000000000000000000000000000000000000081525090505b919050565b5f5f9054906101000a900473ffffffffffffffffffffffffffffffffffffffff1673ffffffffffffffffffffffffffffffffffffffff163373ffffffffffffffffffffffffffffffffffffffff1614610dfc57335f5f9054906101000a900473ffffffffffffffffffffffffffffffffffffffff166040517f23295f0e000000000000000000000000000000000000000000000000000000008152600401610df392919061113a565b60405180910390fd5b5f60149054906101000a900460ff1615610e42576040517fab35696f00000000000000000000000000000000000000000000000000000000815260040160405180910390fd5b600160025f8373ffffffffffffffffffffffffffffffffffffffff1673ffffffffffffffffffffffffffffffffffffffff1681526020019081526020015f205f6101000a81548160ff02191690831515021790555050565b5f5ffd5b5f819050919050565b610eb081610e9e565b8114610eba575f5ffd5b50565b5f81359050610ecb81610ea7565b92915050565b5f60208284031215610ee657610ee5610e9a565b5b5f610ef384828501610ebd565b91505092915050565b5f73ffffffffffffffffffffffffffffffffffffffff82169050919050565b5f610f2582610efc565b9050919050565b610f3581610f1b565b8114610f3f575f5ffd5b50565b5f81359050610f5081610f2c565b92915050565b5f60208284031215610f6b57610f6a610e9a565b5b5f610f7884828501610f42565b91505092915050565b610f8a81610e9e565b82525050565b5f602082019050610fa35f830184610f81565b92915050565b5f8115159050919050565b610fbd81610fa9565b82525050565b5f602082019050610fd65f830184610fb4565b92915050565b5f5f60408385031215610ff257610ff1610e9a565b5b5f610fff85828601610ebd565b925050602061101085828601610ebd565b9150509250929050565b61102381610f1b565b82525050565b5f60208201905061103c5f83018461101a565b92915050565b5f81519050919050565b5f82825260208201905092915050565b8281835e5f83830152505050565b5f601f19601f8301169050919050565b5f61108482611042565b61108e818561104c565b935061109e81856020860161105c565b6110a78161106a565b840191505092915050565b5f6020820190508181035f8301526110ca818461107a565b905092915050565b7f73636f7265206d757374206265203c3d203130300000000000000000000000005f82015250565b5f61110660148361104c565b9150611111826110d2565b602082019050919050565b5f6020820190508181035f830152611133816110fa565b9050919050565b5f60408201905061114d5f83018561101a565b61115a602083018461101a565b9392505050565b7f4e487b71000000000000000000000000000000000000000000000000000000005f52603260045260245ffd5b7f4e487b71000000000000000000000000000000000000000000000000000000005f52601160045260245ffd5b5f6111c582610e9e565b91507fffffffffffffffffffffffffffffffffffffffffffffffffffffffffffffffff82036111f7576111f661118e565b5b600182019050919050565b5f61120c82610e9e565b915061121783610e9e565b925082820190508082111561122f5761122e61118e565b5b92915050565b7f73636f72652063616e6e6f74206265207a65726f0000000000000000000000005f82015250565b5f61126960148361104c565b915061127482611235565b602082019050919050565b5f6040820190506112925f830184610f81565b81810360208301526112a38161125d565b905092915050565b7f73636f72652065786365656473206d6178696d756d00000000000000000000005f82015250565b5f6112df60158361104c565b91506112ea826112ab565b602082019050919050565b5f6040820190506113085f830184610f81565b8181036020830152611319816112d3565b905092915050565b7f4e487b71000000000000000000000000000000000000000000000000000000005f52600160045260245ffdfea2646970667358221220972735ad79f7b00e99894e79deadca300829f5ffbcb9e12c75b81ebefa761c6964736f6c63430008230033","linkReferences":{}},"methodIdentifiers":{"addScore(uint256)":"10b2afce","addScoreStrict(uint256)":"47ca7993","addToWhitelist(address)":"e43252d7","counter()":"61bc221a","findFirstAbove(uint256)":"289f5704","getGrade(uint256)":"e1e0485e","increment()":"d09de08a","max(uint256,uint256)":"6d5433e6","owner()":"8da5cb5b","pause()":"8456cb59","paused()":"5c975abb","removeWhiteList(address)":"2042e5c2","scores(uint256)":"2ee691a3","scoresLength()":"762144e2","totalScore()":"c006719f","unpause()":"3f4ba83a","vipIncrement()":"2d5cfb38","whitelist(address)":"9b19251a"},"id":1}