{"abi":[{"type":"constructor","inputs":[],"stateMutability":"nonpayable"},{"type":"function","name":"addScore","inputs":[{"name":"score","type":"uint256","internalType":"uint256"}],"outputs":[],"stateMutability":"nonpayable"},{"type":"function","name":"addScoreStrict","inputs":[{"name":"score","type":"uint256","internalType":"uint256"}],"outputs":[],"stateMutability":"nonpayable"},{"type":"function","name":"addToWhitelist","inputs":[{"name":"user","type":"address","internalType":"address"}],"outputs":[],"stateMutability":"nonpayable"},{"type":"function","name":"counter","inputs":[],"outputs":[{"name":"","type":"uint256","internalType":"uint256"}],"stateMutability":"view"},{"type":"function","name":"findFirstAbove","inputs":[{"name":"threshold","type":"uint256","internalType":"uint256"}],"outputs":[{"name":"","type":"uint256","internalType":"uint256"}],"stateMutability":"view"},{"type":"function","name":"getGrade","inputs":[{"name":"score","type":"uint256","internalType":"uint256"}],"outputs":[{"name":"","type":"string","internalType":"string"}],"stateMutability":"pure"},{"type":"function","name":"increment","inputs":[],"outputs":[],"stateMutability":"nonpayable"},{"type":"function","name":"max","inputs":[{"name":"a","type":"uint256","internalType":"uint256"},{"name":"b","type":"uint256","internalType":"uint256"}],"outputs":[{"name":"","type":"uint256","internalType":"uint256"}],"stateMutability":"pure"},{"type":"function","name":"owner","inputs":[],"outputs":[{"name":"","type":"address","internalType":"address"}],"stateMutability":"view"},{"type":"function","name":"pause","inputs":[],"outputs":[],"stateMutability":"nonpayable"},{"type":"function","name":"paused","inputs":[],"outputs":[{"name":"","type":"bool","internalType":"bool"}],"stateMutability":"view"},{"type":"function","name":"scores","inputs":[{"name":"","type":"uint256","internalType":"uint256"}],"outputs":[{"name":"","type":"uint256","internalType":"uint256"}],"stateMutability":"view"},{"type":"function","name":"scoresLength","inputs":[],"outputs":[{"name":"","type":"uint256","internalType":"uint256"}],"stateMutability":"view"},{"type":"function","name":"totalScore","inputs":[],"outputs":[{"name":"total","type":"uint256","internalType":"uint256"}],"stateMutability":"view"},{"type":"function","name":"unpause","inputs":[],"outputs":[],"stateMutability":"nonpayable"},{"type":"function","name":"vipIncrement","inputs":[],"outputs":[],"stateMutability":"nonpayable"},{"type":"function","name":"whitelist","inputs":[{"name":"","type":"address","internalType":"address"}],"outputs":[{"name":"","type":"bool","internalType":"bool"}],"stateMutability":"view"},{"type":"event","name":"CounterIncremented","inputs":[{"name":"by","type":"address","indexed":true,"internalType":"address"},{"name":"newValue","type":"uint256","indexed":false,"internalType":"uint256"}],"anonymous":false},{"type":"event","name":"Paused","inputs":[{"name":"by","type":"address","indexed":false,"internalType":"address"}],"anonymous":false},{"type":"event","name":"ScoreAdded","inputs":[{"name":"score","type":"uint256","indexed":false,"internalType":"uint256"}],"anonymous":false},{"type":"event","name":"Unpaused","inputs":[{"name":"by","type":"address","indexed":false,"internalType":"address"}],"anonymous":false},{"type":"error","name":"ContractPaused","inputs":[]},{"type":"error","name":"InvalidScore","inputs":[{"name":"score","type":"uint256","internalType":"uint256"},{"name":"reason","type":"string","internalType":"string"}]},{"type":"error","name":"NoScores","inputs":[]},{"type":"error","name":"NotOwner","inputs":[{"name":"caller","type":"address","internalType":"address"},{"name":"requiredOwner","type":"address","internalType":"address"}]},{"type":"error","name":"NotWhitelisted","inputs":[{"name":"caller","type":"address","internalType":"address"}]}],"bytecode":{"object":"0x6080604052348015600e575f5ffd5b50335f5f6101000a81548173ffffffffffffffffffffffffffffffffffffffff021916908373ffffffffffffffffffffffffffffffffffffffff1602179055505f5f60146101000a81548160ff0219169083151502179055505f6001819055506112128061007b5f395ff3fe608060405234801561000f575f5ffd5b5060043610610109575f3560e01c80636d5433e6116100a05780639b19251a1161006f5780639b19251a1461026b578063c006719f1461029b578063d09de08a146102b9578063e1e0485e146102c3578063e43252d7146102f357610109565b80636d5433e6146101f5578063762144e2146102255780638456cb59146102435780638da5cb5b1461024d57610109565b80633f4ba83a116100dc5780633f4ba83a1461019357806347ca79931461019d5780635c975abb146101b957806361bc221a146101d757610109565b806310b2afce1461010d578063289f5704146101295780632d5cfb38146101595780632ee691a314610163575b5f5ffd5b61012760048036038101906101229190610d5f565b61030f565b005b610143600480360381019061013e9190610d5f565b6103f9565b6040516101509190610d99565b60405180910390f35b61016161049f565b005b61017d60048036038101906101789190610d5f565b6105db565b60405161018a9190610d99565b60405180910390f35b61019b6105fb565b005b6101b760048036038101906101b29190610d5f565b6106ff565b005b6101c161082f565b6040516101ce9190610dcc565b60405180910390f35b6101df610841565b6040516101ec9190610d99565b60405180910390f35b61020f600480360381019061020a9190610de5565b610847565b60405161021c9190610d99565b60405180910390f35b61022d610860565b60405161023a9190610d99565b60405180910390f35b61024b61086c565b005b610255610971565b6040516102629190610e62565b60405180910390f35b61028560048036038101906102809190610ea5565b610995565b6040516102929190610dcc565b60405180910390f35b6102a36109b2565b6040516102b09190610d99565b60405180910390f35b6102c1610a00565b005b6102dd60048036038101906102d89190610d5f565b610ac9565b6040516102ea9190610f40565b60405180910390f35b61030d60048036038101906103089190610ea5565b610bd8565b005b5f60149054906101000a900460ff1615610355576040517fab35696f00000000000000000000000000000000000000000000000000000000815260040160405180910390fd5b6064811115610399576040517f08c379a000000000000000000000000000000000000000000000000000000000815260040161039090610faa565b60405180910390fd5b600381908060018154018082558091505060019003905f5260205f20015f90919091909150557f1afa89fdcfba81e0c354610fdee215699a891e29a20745049fa9e280771ffaed816040516103ee9190610d99565b60405180910390a150565b5f5f5f90505b60038054905081101561046857826003828154811061042157610420610fc8565b5b905f5260205f2001541115610455576003818154811061044457610443610fc8565b5b905f5260205f20015491505061049a565b808061046090611022565b9150506103ff565b6040517fb4c4e80a00000000000000000000000000000000000000000000000000000000815260040160405180910390fd5b919050565b60025f3373ffffffffffffffffffffffffffffffffffffffff1673ffffffffffffffffffffffffffffffffffffffff1681526020019081526020015f205f9054906101000a900460ff1661052a57336040517fdf17e3160000000000000000000000000000000000000000000000000000000081526004016105219190610e62565b60405180910390fd5b5f60149054906101000a900460ff1615610570576040517fab35696f00000000000000000000000000000000000000000000000000000000815260040160405180910390fd5b600a60015f8282546105829190611069565b925050819055503373ffffffffffffffffffffffffffffffffffffffff167f59950fb23669ee30425f6d79758e75fae698a6c88b2982f2980638d8bcd9397d6001546040516105d19190610d99565b60405180910390a2565b600381815481106105ea575f80fd5b905f5260205f20015f915090505481565b5f5f9054906101000a900473ffffffffffffffffffffffffffffffffffffffff1673ffffffffffffffffffffffffffffffffffffffff163373ffffffffffffffffffffffffffffffffffffffff16146106ad57335f5f9054906101000a900473ffffffffffffffffffffffffffffffffffffffff166040517f23295f0e0000000000000000000000000000000000000000000000000000000081526004016106a492919061109c565b60405180910390fd5b5f5f60146101000a81548160ff0219169083151502179055507f5db9ee0a495bf2e6ff9c91a7834c1ba4fdd244a5e8aa4e537bd38aeae4b073aa336040516106f59190610e62565b60405180910390a1565b5f60149054906101000a900460ff1615610745576040517fab35696f00000000000000000000000000000000000000000000000000000000815260040160405180910390fd5b5f810361078957806040517f2f2c6d52000000000000000000000000000000000000000000000000000000008152600401610780919061110d565b60405180910390fd5b60648111156107cf57806040517f2f2c6d520000000000000000000000000000000000000000000000000000000081526004016107c69190611183565b60405180910390fd5b600381908060018154018082558091505060019003905f5260205f20015f90919091909150557f1afa89fdcfba81e0c354610fdee215699a891e29a20745049fa9e280771ffaed816040516108249190610d99565b60405180910390a150565b5f60149054906101000a900460ff1681565b60015481565b5f818310156108565781610858565b825b905092915050565b5f600380549050905090565b5f5f9054906101000a900473ffffffffffffffffffffffffffffffffffffffff1673ffffffffffffffffffffffffffffffffffffffff163373ffffffffffffffffffffffffffffffffffffffff161461091e57335f5f9054906101000a900473ffffffffffffffffffffffffffffffffffffffff166040517f23295f0e00000000000000000000000000000000000000000000000000000000815260040161091592919061109c565b60405180910390fd5b60015f60146101000a81548160ff0219169083151502179055507f62e78cea01bee320cd4e420270b5ea74000d11b0c9f74754ebdbfc544b05a258336040516109679190610e62565b60405180910390a1565b5f5f9054906101000a900473ffffffffffffffffffffffffffffffffffffffff1681565b6002602052805f5260405f205f915054906101000a900460ff1681565b5f5f5f90505b6003805490508110156109fc57600381815481106109d9576109d8610fc8565b5b905f5260205f200154826109ed9190611069565b915080806001019150506109b8565b5090565b5f60149054906101000a900460ff1615610a46576040517fab35696f00000000000000000000000000000000000000000000000000000000815260040160405180910390fd5b5f60015490506001805f828254610a5d9190611069565b925050819055503373ffffffffffffffffffffffffffffffffffffffff167f59950fb23669ee30425f6d79758e75fae698a6c88b2982f2980638d8bcd9397d600154604051610aac9190610d99565b60405180910390a28060015411610ac657610ac56111af565b5b50565b6060605a8210610b10576040518060400160405280600181526020017f41000000000000000000000000000000000000000000000000000000000000008152509050610bd3565b60508210610b55576040518060400160405280600181526020017f42000000000000000000000000000000000000000000000000000000000000008152509050610bd3565b603c8210610b9a576040518060400160405280600181526020017f43000000000000000000000000000000000000000000000000000000000000008152509050610bd3565b6040518060400160405280600181526020017f440000000000000000000000000000000000000000000000000000000000000081525090505b919050565b5f5f9054906101000a900473ffffffffffffffffffffffffffffffffffffffff1673ffffffffffffffffffffffffffffffffffffffff163373ffffffffffffffffffffffffffffffffffffffff1614610c8a57335f5f9054906101000a900473ffffffffffffffffffffffffffffffffffffffff166040517f23295f0e000000000000000000000000000000000000000000000000000000008152600401610c8192919061109c565b60405180910390fd5b5f60149054906101000a900460ff1615610cd0576040517fab35696f00000000000000000000000000000000000000000000000000000000815260040160405180910390fd5b600160025f8373ffffffffffffffffffffffffffffffffffffffff1673ffffffffffffffffffffffffffffffffffffffff1681526020019081526020015f205f6101000a81548160ff02191690831515021790555050565b5f5ffd5b5f819050919050565b610d3e81610d2c565b8114610d48575f5ffd5b50565b5f81359050610d5981610d35565b92915050565b5f60208284031215610d7457610d73610d28565b5b5f610d8184828501610d4b565b91505092915050565b610d9381610d2c565b82525050565b5f602082019050610dac5f830184610d8a565b92915050565b5f8115159050919050565b610dc681610db2565b82525050565b5f602082019050610ddf5f830184610dbd565b92915050565b5f5f60408385031215610dfb57610dfa610d28565b5b5f610e0885828601610d4b565b9250506020610e1985828601610d4b565b9150509250929050565b5f73ffffffffffffffffffffffffffffffffffffffff82169050919050565b5f610e4c82610e23565b9050919050565b610e5c81610e42565b82525050565b5f602082019050610e755f830184610e53565b92915050565b610e8481610e42565b8114610e8e575f5ffd5b50565b5f81359050610e9f81610e7b565b92915050565b5f60208284031215610eba57610eb9610d28565b5b5f610ec784828501610e91565b91505092915050565b5f81519050919050565b5f82825260208201905092915050565b8281835e5f83830152505050565b5f601f19601f8301169050919050565b5f610f1282610ed0565b610f1c8185610eda565b9350610f2c818560208601610eea565b610f3581610ef8565b840191505092915050565b5f6020820190508181035f830152610f588184610f08565b905092915050565b7f73636f7265206d757374206265203c3d203130300000000000000000000000005f82015250565b5f610f94601483610eda565b9150610f9f82610f60565b602082019050919050565b5f6020820190508181035f830152610fc181610f88565b9050919050565b7f4e487b71000000000000000000000000000000000000000000000000000000005f52603260045260245ffd5b7f4e487b71000000000000000000000000000000000000000000000000000000005f52601160045260245ffd5b5f61102c82610d2c565b91507fffffffffffffffffffffffffffffffffffffffffffffffffffffffffffffffff820361105e5761105d610ff5565b5b600182019050919050565b5f61107382610d2c565b915061107e83610d2c565b925082820190508082111561109657611095610ff5565b5b92915050565b5f6040820190506110af5f830185610e53565b6110bc6020830184610e53565b9392505050565b7f73636f72652063616e6e6f74206265207a65726f0000000000000000000000005f82015250565b5f6110f7601483610eda565b9150611102826110c3565b602082019050919050565b5f6040820190506111205f830184610d8a565b8181036020830152611131816110eb565b905092915050565b7f73636f72652065786365656473206d6178696d756d00000000000000000000005f82015250565b5f61116d601583610eda565b915061117882611139565b602082019050919050565b5f6040820190506111965f830184610d8a565b81810360208301526111a781611161565b905092915050565b7f4e487b71000000000000000000000000000000000000000000000000000000005f52600160045260245ffdfea264697066735822122006caeeda93c36ccd2e0e375c129c64e5e24095d2c54767052e72ab990e8bc58964736f6c63430008230033","linkReferences":{}},"methodIdentifiers":{"addScore(uint256)":"10b2afce","addScoreStrict(uint256)":"47ca7993","addToWhitelist(address)":"e43252d7","counter()":"61bc221a","findFirstAbove(uint256)":"289f5704","getGrade(uint256)":"e1e0485e","increment()":"d09de08a","max(uint256,uint256)":"6d5433e6","owner()":"8da5cb5b","pause()":"8456cb59","paused()":"5c975abb","scores(uint256)":"2ee691a3","scoresLength()":"762144e2","totalScore()":"c006719f","unpause()":"3f4ba83a","vipIncrement()":"2d5cfb38","whitelist(address)":"9b19251a"},"id":1}